{
    "abi": [
        {
            "type": "function",
            "name": "UPGRADE_INTERFACE_VERSION",
            "inputs": [],
            "outputs": [
                {
                    "name": "",
                    "type": "string",
                    "internalType": "string"
                }
            ],
            "stateMutability": "view"
        },
        {
            "type": "function",
            "name": "chain",
            "inputs": [],
            "outputs": [
                {
                    "name": "",
                    "type": "address",
                    "internalType": "contract ICanonicalStateChain"
                }
            ],
            "stateMutability": "view"
        },
        {
            "type": "function",
            "name": "chainOracle",
            "inputs": [],
            "outputs": [
                {
                    "name": "",
                    "type": "address",
                    "internalType": "contract IChainOracle"
                }
            ],
            "stateMutability": "view"
        },
        {
            "type": "function",
            "name": "challengeDataRootInclusion",
            "inputs": [
                {
                    "name": "_blockIndex",
                    "type": "uint256",
                    "internalType": "uint256"
                },
                {
                    "name": "_pointerIndex",
                    "type": "uint8",
                    "internalType": "uint8"
                },
                {
                    "name": "_shareIndex",
                    "type": "uint32",
                    "internalType": "uint32"
                }
            ],
            "outputs": [
                {
                    "name": "",
                    "type": "uint256",
                    "internalType": "uint256"
                }
            ],
            "stateMutability": "payable"
        },
        {
            "type": "function",
            "name": "challengeFee",
            "inputs": [],
            "outputs": [
                {
                    "name": "",
                    "type": "uint256",
                    "internalType": "uint256"
                }
            ],
            "stateMutability": "view"
        },
        {
            "type": "function",
            "name": "challengeL2Header",
            "inputs": [
                {
                    "name": "_rblockNum",
                    "type": "uint256",
                    "internalType": "uint256"
                },
                {
                    "name": "_l2Num",
                    "type": "uint256",
                    "internalType": "uint256"
                }
            ],
            "outputs": [
                {
                    "name": "",
                    "type": "bytes32",
                    "internalType": "bytes32"
                }
            ],
            "stateMutability": "payable"
        },
        {
            "type": "function",
            "name": "challengePeriod",
            "inputs": [],
            "outputs": [
                {
                    "name": "",
                    "type": "uint256",
                    "internalType": "uint256"
                }
            ],
            "stateMutability": "view"
        },
        {
            "type": "function",
            "name": "challengeReward",
            "inputs": [],
            "outputs": [
                {
                    "name": "",
                    "type": "uint256",
                    "internalType": "uint256"
                }
            ],
            "stateMutability": "view"
        },
        {
            "type": "function",
            "name": "challengeWindow",
            "inputs": [],
            "outputs": [
                {
                    "name": "",
                    "type": "uint256",
                    "internalType": "uint256"
                }
            ],
            "stateMutability": "view"
        },
        {
            "type": "function",
            "name": "claimDAChallengeReward",
            "inputs": [
                {
                    "name": "_challengeKey",
                    "type": "bytes32",
                    "internalType": "bytes32"
                }
            ],
            "outputs": [],
            "stateMutability": "nonpayable"
        },
        {
            "type": "function",
            "name": "claimL2HeaderChallengeReward",
            "inputs": [
                {
                    "name": "_challengeKey",
                    "type": "bytes32",
                    "internalType": "bytes32"
                }
            ],
            "outputs": [],
            "stateMutability": "nonpayable"
        },
        {
            "type": "function",
            "name": "daChallenges",
            "inputs": [
                {
                    "name": "",
                    "type": "bytes32",
                    "internalType": "bytes32"
                }
            ],
            "outputs": [
                {
                    "name": "blockHash",
                    "type": "bytes32",
                    "internalType": "bytes32"
                },
                {
                    "name": "blockIndex",
                    "type": "uint256",
                    "internalType": "uint256"
                },
                {
                    "name": "pointerIndex",
                    "type": "uint8",
                    "internalType": "uint8"
                },
                {
                    "name": "shareIndex",
                    "type": "uint32",
                    "internalType": "uint32"
                },
                {
                    "name": "challenger",
                    "type": "address",
                    "internalType": "address"
                },
                {
                    "name": "expiry",
                    "type": "uint256",
                    "internalType": "uint256"
                },
                {
                    "name": "status",
                    "type": "uint8",
                    "internalType": "enum ChallengeDataAvailability.ChallengeDAStatus"
                },
                {
                    "name": "claimed",
                    "type": "bool",
                    "internalType": "bool"
                }
            ],
            "stateMutability": "view"
        },
        {
            "type": "function",
            "name": "daNamespace",
            "inputs": [],
            "outputs": [
                {
                    "name": "version",
                    "type": "bytes1",
                    "internalType": "bytes1"
                },
                {
                    "name": "id",
                    "type": "bytes28",
                    "internalType": "bytes28"
                }
            ],
            "stateMutability": "view"
        },
        {
            "type": "function",
            "name": "daOracle",
            "inputs": [],
            "outputs": [
                {
                    "name": "",
                    "type": "address",
                    "internalType": "contract IDAOracle"
                }
            ],
            "stateMutability": "view"
        },
        {
            "type": "function",
            "name": "dataRootInclusionChallengeKey",
            "inputs": [
                {
                    "name": "_blockHash",
                    "type": "bytes32",
                    "internalType": "bytes32"
                },
                {
                    "name": "_pointerIndex",
                    "type": "uint8",
                    "internalType": "uint8"
                },
                {
                    "name": "_shareIndex",
                    "type": "uint32",
                    "internalType": "uint32"
                }
            ],
            "outputs": [
                {
                    "name": "",
                    "type": "bytes32",
                    "internalType": "bytes32"
                }
            ],
            "stateMutability": "pure"
        },
        {
            "type": "function",
            "name": "defendDataRootInclusion",
            "inputs": [
                {
                    "name": "_challengeKey",
                    "type": "bytes32",
                    "internalType": "bytes32"
                },
                {
                    "name": "_proof",
                    "type": "tuple",
                    "internalType": "struct SharesProof",
                    "components": [
                        {
                            "name": "data",
                            "type": "bytes[]",
                            "internalType": "bytes[]"
                        },
                        {
                            "name": "shareProofs",
                            "type": "tuple[]",
                            "internalType": "struct NamespaceMerkleMultiproof[]",
                            "components": [
                                {
                                    "name": "beginKey",
                                    "type": "uint256",
                                    "internalType": "uint256"
                                },
                                {
                                    "name": "endKey",
                                    "type": "uint256",
                                    "internalType": "uint256"
                                },
                                {
                                    "name": "sideNodes",
                                    "type": "tuple[]",
                                    "internalType": "struct NamespaceNode[]",
                                    "components": [
                                        {
                                            "name": "min",
                                            "type": "tuple",
                                            "internalType": "struct Namespace",
                                            "components": [
                                                {
                                                    "name": "version",
                                                    "type": "bytes1",
                                                    "internalType": "bytes1"
                                                },
                                                {
                                                    "name": "id",
                                                    "type": "bytes28",
                                                    "internalType": "bytes28"
                                                }
                                            ]
                                        },
                                        {
                                            "name": "max",
                                            "type": "tuple",
                                            "internalType": "struct Namespace",
                                            "components": [
                                                {
                                                    "name": "version",
                                                    "type": "bytes1",
                                                    "internalType": "bytes1"
                                                },
                                                {
                                                    "name": "id",
                                                    "type": "bytes28",
                                                    "internalType": "bytes28"
                                                }
                                            ]
                                        },
                                        {
                                            "name": "digest",
                                            "type": "bytes32",
                                            "internalType": "bytes32"
                                        }
                                    ]
                                }
                            ]
                        },
                        {
                            "name": "namespace",
                            "type": "tuple",
                            "internalType": "struct Namespace",
                            "components": [
                                {
                                    "name": "version",
                                    "type": "bytes1",
                                    "internalType": "bytes1"
                                },
                                {
                                    "name": "id",
                                    "type": "bytes28",
                                    "internalType": "bytes28"
                                }
                            ]
                        },
                        {
                            "name": "rowRoots",
                            "type": "tuple[]",
                            "internalType": "struct NamespaceNode[]",
                            "components": [
                                {
                                    "name": "min",
                                    "type": "tuple",
                                    "internalType": "struct Namespace",
                                    "components": [
                                        {
                                            "name": "version",
                                            "type": "bytes1",
                                            "internalType": "bytes1"
                                        },
                                        {
                                            "name": "id",
                                            "type": "bytes28",
                                            "internalType": "bytes28"
                                        }
                                    ]
                                },
                                {
                                    "name": "max",
                                    "type": "tuple",
                                    "internalType": "struct Namespace",
                                    "components": [
                                        {
                                            "name": "version",
                                            "type": "bytes1",
                                            "internalType": "bytes1"
                                        },
                                        {
                                            "name": "id",
                                            "type": "bytes28",
                                            "internalType": "bytes28"
                                        }
                                    ]
                                },
                                {
                                    "name": "digest",
                                    "type": "bytes32",
                                    "internalType": "bytes32"
                                }
                            ]
                        },
                        {
                            "name": "rowProofs",
                            "type": "tuple[]",
                            "internalType": "struct BinaryMerkleProof[]",
                            "components": [
                                {
                                    "name": "sideNodes",
                                    "type": "bytes32[]",
                                    "internalType": "bytes32[]"
                                },
                                {
                                    "name": "key",
                                    "type": "uint256",
                                    "internalType": "uint256"
                                },
                                {
                                    "name": "numLeaves",
                                    "type": "uint256",
                                    "internalType": "uint256"
                                }
                            ]
                        },
                        {
                            "name": "attestationProof",
                            "type": "tuple",
                            "internalType": "struct AttestationProof",
                            "components": [
                                {
                                    "name": "tupleRootNonce",
                                    "type": "uint256",
                                    "internalType": "uint256"
                                },
                                {
                                    "name": "tuple",
                                    "type": "tuple",
                                    "internalType": "struct DataRootTuple",
                                    "components": [
                                        {
                                            "name": "height",
                                            "type": "uint256",
                                            "internalType": "uint256"
                                        },
                                        {
                                            "name": "dataRoot",
                                            "type": "bytes32",
                                            "internalType": "bytes32"
                                        }
                                    ]
                                },
                                {
                                    "name": "proof",
                                    "type": "tuple",
                                    "internalType": "struct BinaryMerkleProof",
                                    "components": [
                                        {
                                            "name": "sideNodes",
                                            "type": "bytes32[]",
                                            "internalType": "bytes32[]"
                                        },
                                        {
                                            "name": "key",
                                            "type": "uint256",
                                            "internalType": "uint256"
                                        },
                                        {
                                            "name": "numLeaves",
                                            "type": "uint256",
                                            "internalType": "uint256"
                                        }
                                    ]
                                }
                            ]
                        }
                    ]
                }
            ],
            "outputs": [],
            "stateMutability": "nonpayable"
        },
        {
            "type": "function",
            "name": "defendL2Header",
            "inputs": [
                {
                    "name": "_challengeHash",
                    "type": "bytes32",
                    "internalType": "bytes32"
                },
                {
                    "name": "_headerHash",
                    "type": "bytes32",
                    "internalType": "bytes32"
                },
                {
                    "name": "_headerPrevHash",
                    "type": "bytes32",
                    "internalType": "bytes32"
                }
            ],
            "outputs": [],
            "stateMutability": "nonpayable"
        },
        {
            "type": "function",
            "name": "defender",
            "inputs": [],
            "outputs": [
                {
                    "name": "",
                    "type": "address",
                    "internalType": "address"
                }
            ],
            "stateMutability": "view"
        },
        {
            "type": "function",
            "name": "finalizationSeconds",
            "inputs": [],
            "outputs": [
                {
                    "name": "",
                    "type": "uint256",
                    "internalType": "uint256"
                }
            ],
            "stateMutability": "view"
        },
        {
            "type": "function",
            "name": "initialize",
            "inputs": [
                {
                    "name": "_chain",
                    "type": "address",
                    "internalType": "address"
                },
                {
                    "name": "_daOracle",
                    "type": "address",
                    "internalType": "address"
                },
                {
                    "name": "_chainOracle",
                    "type": "address",
                    "internalType": "address"
                }
            ],
            "outputs": [],
            "stateMutability": "nonpayable"
        },
        {
            "type": "function",
            "name": "invalidateHeader",
            "inputs": [
                {
                    "name": "_blockIndex",
                    "type": "uint256",
                    "internalType": "uint256"
                }
            ],
            "outputs": [],
            "stateMutability": "nonpayable"
        },
        {
            "type": "function",
            "name": "isDAChallengeEnabled",
            "inputs": [],
            "outputs": [
                {
                    "name": "",
                    "type": "bool",
                    "internalType": "bool"
                }
            ],
            "stateMutability": "view"
        },
        {
            "type": "function",
            "name": "isHeaderChallengeEnabled",
            "inputs": [],
            "outputs": [
                {
                    "name": "",
                    "type": "bool",
                    "internalType": "bool"
                }
            ],
            "stateMutability": "view"
        },
        {
            "type": "function",
            "name": "isL2HeaderChallengeEnabled",
            "inputs": [],
            "outputs": [
                {
                    "name": "",
                    "type": "bool",
                    "internalType": "bool"
                }
            ],
            "stateMutability": "view"
        },
        {
            "type": "function",
            "name": "l2HeaderChallengeHash",
            "inputs": [
                {
                    "name": "_rblockHash",
                    "type": "bytes32",
                    "internalType": "bytes32"
                },
                {
                    "name": "_l2Num",
                    "type": "uint256",
                    "internalType": "uint256"
                }
            ],
            "outputs": [
                {
                    "name": "",
                    "type": "bytes32",
                    "internalType": "bytes32"
                }
            ],
            "stateMutability": "pure"
        },
        {
            "type": "function",
            "name": "l2HeaderChallenges",
            "inputs": [
                {
                    "name": "",
                    "type": "bytes32",
                    "internalType": "bytes32"
                }
            ],
            "outputs": [
                {
                    "name": "blockNum",
                    "type": "uint256",
                    "internalType": "uint256"
                },
                {
                    "name": "header",
                    "type": "tuple",
                    "internalType": "struct ChallengeL2Header.L2HeaderPointer",
                    "components": [
                        {
                            "name": "rblock",
                            "type": "bytes32",
                            "internalType": "bytes32"
                        },
                        {
                            "name": "number",
                            "type": "uint256",
                            "internalType": "uint256"
                        }
                    ]
                },
                {
                    "name": "prevHeader",
                    "type": "tuple",
                    "internalType": "struct ChallengeL2Header.L2HeaderPointer",
                    "components": [
                        {
                            "name": "rblock",
                            "type": "bytes32",
                            "internalType": "bytes32"
                        },
                        {
                            "name": "number",
                            "type": "uint256",
                            "internalType": "uint256"
                        }
                    ]
                },
                {
                    "name": "challengeEnd",
                    "type": "uint256",
                    "internalType": "uint256"
                },
                {
                    "name": "challenger",
                    "type": "address",
                    "internalType": "address"
                },
                {
                    "name": "status",
                    "type": "uint8",
                    "internalType": "enum ChallengeL2Header.L2HeaderChallengeStatus"
                },
                {
                    "name": "claimed",
                    "type": "bool",
                    "internalType": "bool"
                }
            ],
            "stateMutability": "view"
        },
        {
            "type": "function",
            "name": "maxBundleSize",
            "inputs": [],
            "outputs": [
                {
                    "name": "",
                    "type": "uint256",
                    "internalType": "uint256"
                }
            ],
            "stateMutability": "view"
        },
        {
            "type": "function",
            "name": "owner",
            "inputs": [],
            "outputs": [
                {
                    "name": "",
                    "type": "address",
                    "internalType": "address"
                }
            ],
            "stateMutability": "view"
        },
        {
            "type": "function",
            "name": "proxiableUUID",
            "inputs": [],
            "outputs": [
                {
                    "name": "",
                    "type": "bytes32",
                    "internalType": "bytes32"
                }
            ],
            "stateMutability": "view"
        },
        {
            "type": "function",
            "name": "renounceOwnership",
            "inputs": [],
            "outputs": [],
            "stateMutability": "nonpayable"
        },
        {
            "type": "function",
            "name": "setChallengeFee",
            "inputs": [
                {
                    "name": "_challengeFee",
                    "type": "uint256",
                    "internalType": "uint256"
                }
            ],
            "outputs": [],
            "stateMutability": "nonpayable"
        },
        {
            "type": "function",
            "name": "setChallengePeriod",
            "inputs": [
                {
                    "name": "_challengePeriod",
                    "type": "uint256",
                    "internalType": "uint256"
                }
            ],
            "outputs": [],
            "stateMutability": "nonpayable"
        },
        {
            "type": "function",
            "name": "setChallengeReward",
            "inputs": [
                {
                    "name": "_challengeReward",
                    "type": "uint256",
                    "internalType": "uint256"
                }
            ],
            "outputs": [],
            "stateMutability": "nonpayable"
        },
        {
            "type": "function",
            "name": "setChallengeWindow",
            "inputs": [
                {
                    "name": "_challengeWindow",
                    "type": "uint256",
                    "internalType": "uint256"
                }
            ],
            "outputs": [],
            "stateMutability": "nonpayable"
        },
        {
            "type": "function",
            "name": "setDANamespace",
            "inputs": [
                {
                    "name": "_namespace",
                    "type": "tuple",
                    "internalType": "struct Namespace",
                    "components": [
                        {
                            "name": "version",
                            "type": "bytes1",
                            "internalType": "bytes1"
                        },
                        {
                            "name": "id",
                            "type": "bytes28",
                            "internalType": "bytes28"
                        }
                    ]
                }
            ],
            "outputs": [],
            "stateMutability": "nonpayable"
        },
        {
            "type": "function",
            "name": "setDAOracle",
            "inputs": [
                {
                    "name": "_daOracle",
                    "type": "address",
                    "internalType": "address"
                }
            ],
            "outputs": [],
            "stateMutability": "nonpayable"
        },
        {
            "type": "function",
            "name": "setDefender",
            "inputs": [
                {
                    "name": "_defender",
                    "type": "address",
                    "internalType": "address"
                }
            ],
            "outputs": [],
            "stateMutability": "nonpayable"
        },
        {
            "type": "function",
            "name": "setMaxBundleSize",
            "inputs": [
                {
                    "name": "_maxBundleSize",
                    "type": "uint256",
                    "internalType": "uint256"
                }
            ],
            "outputs": [],
            "stateMutability": "nonpayable"
        },
        {
            "type": "function",
            "name": "settleDataRootInclusion",
            "inputs": [
                {
                    "name": "_challengeKey",
                    "type": "bytes32",
                    "internalType": "bytes32"
                }
            ],
            "outputs": [],
            "stateMutability": "nonpayable"
        },
        {
            "type": "function",
            "name": "settleL2HeaderChallenge",
            "inputs": [
                {
                    "name": "_challengeHash",
                    "type": "bytes32",
                    "internalType": "bytes32"
                }
            ],
            "outputs": [],
            "stateMutability": "nonpayable"
        },
        {
            "type": "function",
            "name": "toggleDAChallenge",
            "inputs": [
                {
                    "name": "_status",
                    "type": "bool",
                    "internalType": "bool"
                }
            ],
            "outputs": [],
            "stateMutability": "nonpayable"
        },
        {
            "type": "function",
            "name": "toggleHeaderChallenge",
            "inputs": [
                {
                    "name": "_status",
                    "type": "bool",
                    "internalType": "bool"
                }
            ],
            "outputs": [],
            "stateMutability": "nonpayable"
        },
        {
            "type": "function",
            "name": "toggleL2HeaderChallenge",
            "inputs": [
                {
                    "name": "_status",
                    "type": "bool",
                    "internalType": "bool"
                }
            ],
            "outputs": [],
            "stateMutability": "nonpayable"
        },
        {
            "type": "function",
            "name": "transferOwnership",
            "inputs": [
                {
                    "name": "newOwner",
                    "type": "address",
                    "internalType": "address"
                }
            ],
            "outputs": [],
            "stateMutability": "nonpayable"
        },
        {
            "type": "function",
            "name": "upgradeToAndCall",
            "inputs": [
                {
                    "name": "newImplementation",
                    "type": "address",
                    "internalType": "address"
                },
                {
                    "name": "data",
                    "type": "bytes",
                    "internalType": "bytes"
                }
            ],
            "outputs": [],
            "stateMutability": "payable"
        },
        {
            "type": "event",
            "name": "ChallengeDAUpdate",
            "inputs": [
                {
                    "name": "_blockHash",
                    "type": "bytes32",
                    "indexed": true,
                    "internalType": "bytes32"
                },
                {
                    "name": "_pointerIndex",
                    "type": "uint256",
                    "indexed": true,
                    "internalType": "uint256"
                },
                {
                    "name": "_shareIndex",
                    "type": "uint32",
                    "indexed": false,
                    "internalType": "uint32"
                },
                {
                    "name": "_blockIndex",
                    "type": "uint256",
                    "indexed": false,
                    "internalType": "uint256"
                },
                {
                    "name": "_expiry",
                    "type": "uint256",
                    "indexed": false,
                    "internalType": "uint256"
                },
                {
                    "name": "_status",
                    "type": "uint8",
                    "indexed": true,
                    "internalType": "enum ChallengeDataAvailability.ChallengeDAStatus"
                }
            ],
            "anonymous": false
        },
        {
            "type": "event",
            "name": "Initialized",
            "inputs": [
                {
                    "name": "version",
                    "type": "uint64",
                    "indexed": false,
                    "internalType": "uint64"
                }
            ],
            "anonymous": false
        },
        {
            "type": "event",
            "name": "InvalidHeader",
            "inputs": [
                {
                    "name": "_blockIndex",
                    "type": "uint256",
                    "indexed": true,
                    "internalType": "uint256"
                },
                {
                    "name": "_hash",
                    "type": "bytes32",
                    "indexed": true,
                    "internalType": "bytes32"
                },
                {
                    "name": "_reason",
                    "type": "uint8",
                    "indexed": true,
                    "internalType": "enum ChallengeHeader.InvalidHeaderReason"
                }
            ],
            "anonymous": false
        },
        {
            "type": "event",
            "name": "L2HeaderChallengeUpdate",
            "inputs": [
                {
                    "name": "challengeHash",
                    "type": "bytes32",
                    "indexed": true,
                    "internalType": "bytes32"
                },
                {
                    "name": "l2Number",
                    "type": "uint256",
                    "indexed": true,
                    "internalType": "uint256"
                },
                {
                    "name": "rblock",
                    "type": "bytes32",
                    "indexed": false,
                    "internalType": "bytes32"
                },
                {
                    "name": "expiry",
                    "type": "uint256",
                    "indexed": false,
                    "internalType": "uint256"
                },
                {
                    "name": "status",
                    "type": "uint8",
                    "indexed": true,
                    "internalType": "enum ChallengeL2Header.L2HeaderChallengeStatus"
                }
            ],
            "anonymous": false
        },
        {
            "type": "event",
            "name": "OwnershipTransferred",
            "inputs": [
                {
                    "name": "previousOwner",
                    "type": "address",
                    "indexed": true,
                    "internalType": "address"
                },
                {
                    "name": "newOwner",
                    "type": "address",
                    "indexed": true,
                    "internalType": "address"
                }
            ],
            "anonymous": false
        },
        {
            "type": "event",
            "name": "Upgraded",
            "inputs": [
                {
                    "name": "implementation",
                    "type": "address",
                    "indexed": true,
                    "internalType": "address"
                }
            ],
            "anonymous": false
        },
        {
            "type": "error",
            "name": "AddressEmptyCode",
            "inputs": [
                {
                    "name": "target",
                    "type": "address",
                    "internalType": "address"
                }
            ]
        },
        {
            "type": "error",
            "name": "ERC1967InvalidImplementation",
            "inputs": [
                {
                    "name": "implementation",
                    "type": "address",
                    "internalType": "address"
                }
            ]
        },
        {
            "type": "error",
            "name": "ERC1967NonPayable",
            "inputs": []
        },
        {
            "type": "error",
            "name": "FailedInnerCall",
            "inputs": []
        },
        {
            "type": "error",
            "name": "InvalidInitialization",
            "inputs": []
        },
        {
            "type": "error",
            "name": "NotInitializing",
            "inputs": []
        },
        {
            "type": "error",
            "name": "OwnableInvalidOwner",
            "inputs": [
                {
                    "name": "owner",
                    "type": "address",
                    "internalType": "address"
                }
            ]
        },
        {
            "type": "error",
            "name": "OwnableUnauthorizedAccount",
            "inputs": [
                {
                    "name": "account",
                    "type": "address",
                    "internalType": "address"
                }
            ]
        },
        {
            "type": "error",
            "name": "ReentrancyGuardReentrantCall",
            "inputs": []
        },
        {
            "type": "error",
            "name": "UUPSUnauthorizedCallContext",
            "inputs": []
        },
        {
            "type": "error",
            "name": "UUPSUnsupportedProxiableUUID",
            "inputs": [
                {
                    "name": "slot",
                    "type": "bytes32",
                    "internalType": "bytes32"
                }
            ]
        }
    ],
    "bytecode": {
        "object": "0x60a0806040523461002a5730608052614d729081610030823960805181818161165001526117f60152f35b600080fdfe6080604052600436101561001257600080fd5b6000803560e01c806301c1aa0d14612e455780630200501d1461294e5780630eea9bab146122cd578063113e70fb14612238578063163a7177146121a057806317eef5b1146120e75780631b0ec391146120b75780631bd8f9ca14612099578063325898b1146120765780633323d3e414611b7457806335bf82f614611ac657806339e87c2214611aa35780633ea0c15e14611a855780634329b10114611a08578063485bc239146119d05780634c1b6e4b146119b25780634f1ef286146117b857806351ad15cf146116ba57806352d1902d1461163d57806355c20747146116065780635ae45d8b14610fe65780635bba0ea914610e475780635d475fdd14610da35780635dade41214610a855780636da802c8146109df578063715018a6146109745780637d3020ad146108be5780637f4c91c51461089557806380a2558a14610872578063861a1412146108555780638da5cb5b1461081f57806395618a28146107e7578063988c6671146107ab57806398e2dffb14610781578063a3be6534146106e9578063ad3cb1cc1461068c578063bc67745114610669578063bfcf449514610640578063c0c53b8b14610465578063c763e5a11461043c578063ee223c0214610413578063f2fde38b146103e6578063f3f480d9146103c8578063f8a22c6c1461024e5763fa8e8de21461020c57600080fd5b3461024b57604036600319011261024b57602060405181810190600435825260243560408201526040815261024081612ee8565b519020604051908152f35b80fd5b503461024b57602036600319011261024b57600435808252607160205260408220906006820190815491610293600160ff8560a01c1661028d81613184565b1461321e565b600584019283544211156103835760ff60a01b1916600160a11b1790556006548354600019810193916001600160a01b031690841161036f57859060018601948554823b1561036b57604484928360405195869485936334c9bca560e01b8552600485015260248401525af1801561036057610348575b505060407f89389219f04af163105506312f99d6ca034af96d3ee1128efc6a9619ee2aeec2916002809601549454905482519182526020820152a480f35b61035190612f34565b61035c57843861030a565b8480fd5b6040513d84823e3d90fd5b8380fd5b634e487b7160e01b86526011600452602486fd5b60405162461bcd60e51b815260206004820152601e60248201527f6368616c6c656e676520706572696f6420686173206e6f7420656e64656400006044820152606490fd5b503461024b578060031936011261024b576020600154604051908152f35b503461024b57602036600319011261024b576104106104036131a4565b61040b61393f565b6138cb565b80f35b503461024b578060031936011261024b576008546040516001600160a01b039091168152602090f35b503461024b578060031936011261024b576006546040516001600160a01b039091168152602090f35b503461024b57606036600319011261024b5761047f6131a4565b6001600160a01b03602435818116929083900361063b576044359082821680920361063b577ff0c57e16840df040f15088dc2f81fe391c3923bec73e23a9662efc9c229c6a009384549360ff8560401c1615946001600160401b03811680159081610633575b6001149081610629575b159081610620575b5061060e5767ffffffffffffffff1981166001178755856105ef575b5061051c61446d565b61052461446d565b61052c61446d565b610535336138cb565b61053d61446d565b61054561446d565b6001600080516020614d46833981519152556203f48087556202a3006001556714d1120d7b1600006002556702c68af0bb1400006003556001600160601b0360a01b9216826006541617600655816008541617600855600554161760055561a410603c556105b1575080f35b68ff00000000000000001981541690557fc7f505b2f371ae2175ee4913f4499e1f2633a7b5936321eed1cdaeb6115181d2602060405160018152a180f35b68ffffffffffffffffff19166801000000000000000117865538610513565b60405163f92ee8a960e01b8152600490fd5b905015386104f7565b303b1591506104ef565b8791506104e5565b600080fd5b503461024b578060031936011261024b576005546040516001600160a01b039091168152602090f35b503461024b57602036600319011261024b5761068361393f565b600435603c5580f35b503461024b578060031936011261024b576106db604080516106ad81612f19565b6005815260208101640352e302e360dc1b8152825193849260208452518092816020860152858501906131fb565b601f01601f19168101030190f35b503461024b57602036600319011261024b576107036131a4565b61070b61393f565b6001600160a01b03168015610730576001600160601b0360a01b600854161760085580f35b60405162461bcd60e51b815260206004820152602360248201527f64614f7261636c652063616e6e6f7420626520746865207a65726f206164647260448201526265737360e81b6064820152608490fd5b503461024b578060031936011261024b576107a3602091600154905490613570565b604051908152f35b503461024b57602036600319011261024b576004358015158091036107e3576107d261393f565b60ff8019603b5416911617603b5580f35b5080fd5b503461024b57602036600319011261024b576004358015158091036107e35761080e61393f565b60ff80196072541691161760725580f35b503461024b578060031936011261024b57600080516020614ce6833981519152546040516001600160a01b039091168152602090f35b503461024b578060031936011261024b5760209054604051908152f35b503461024b578060031936011261024b57602060ff607054166040519015158152f35b503461024b578060031936011261024b576004546040516001600160a01b039091168152602090f35b503461024b57602036600319011261024b576004356108db61393f565b662386f26fc1000081101580610962575b156108f75760035580f35b60405162461bcd60e51b815260206004820152603860248201527f6368616c6c656e676520726577617264206d757374206265206265747765656e60448201527f20302e303120657468657220616e6420313020657468657200000000000000006064820152608490fd5b50678ac7230489e800008111156108ec565b503461024b578060031936011261024b5761098d61393f565b600080516020614ce683398151915280546001600160a01b031981169091556000906001600160a01b03167f8be0079c531659141344cd1fd0a4f28419497f9722a3daafe3b4186f6b6457e08280a380f35b503461024b57602036600319011261024b57604061012091600435815260716020522060ff815491610a13600182016131dd565b610a1f600383016131dd565b916020600660058301549201549381868660a01c16946040519889528051828a015201516040880152805160608801520151608086015260a085015260018060a01b03821660c0850152610a7281613184565b60e084015260a81c161515610100820152f35b503461024b576020908160031936011261024b576004359160018060a01b0360065416926040516247a8e360e11b81528281600481885afa8015610d98578490610d69575b610ad791508211156136dc565b610ae2811515613728565b60405193631614b30360e21b9283865282600487015260249581818881865afa908115610c85578691610d3c575b5060405190630a2a343960e21b825260048201526040818881865afa908115610c85576001600160401b03610b5d92610b55928991610d0d575b505116875490613570565b4211156137aa565b60ff603b541615610cca5760405193845282600485015280848781855afa938415610cbf578594610c90575b5060405163392af9bf60e11b81526004810184905285818881865afa908115610c855785610bc09286928991610c63575b50613dab565b610c2e57506000198201918211610c1a57938484953b1561035c5784928360449260405196879586946334c9bca560e01b865260048601528401525af1801561036057610c0a5750f35b610c1390612f34565b61024b5780f35b5050634e487b7160e01b8252506011600452fd5b606490600f876040519262461bcd60e51b845260048401528201526e1a195859195c881a5cc81d985b1a59608a1b6044820152fd5b610c7f91503d808b833e610c778183612f62565b8101906133ec565b38610bba565b6040513d88823e3d90fd5b9080945081813d8311610cb8575b610ca88183612f62565b8101031261063b57519238610b89565b503d610c9e565b6040513d87823e3d90fd5b606490601c876040519262461bcd60e51b845260048401528201527f686561646572206368616c6c656e67652069732064697361626c6564000000006044820152fd5b610d2f915060403d604011610d35575b610d278183612f62565b810190613774565b38610b4a565b503d610d1d565b90508181813d8311610d62575b610d538183612f62565b8101031261063b575138610b10565b503d610d49565b508281813d8311610d91575b610d7f8183612f62565b8101031261063b57610ad79051610aca565b503d610d75565b6040513d86823e3d90fd5b503461024b57602036600319011261024b57600435610dc061393f565b61a8c081101580610e3a575b15610dd75760015580f35b60405162461bcd60e51b815260206004820152603560248201527f6368616c6c656e676520706572696f64206d757374206265206265747765656e60448201527420313220686f75727320616e642033207765656b7360581b6064820152608490fd5b50621baf80811115610dcc565b503461024b57602036600319011261024b57610e61613978565b6004358152606f60205260408120906004820191825492610e8a600160ff861661028d81613184565b60038201938454421115610fa15760ff191660021790556006546001820180549092916001600160a01b0316906000198101908111610f8d57825490823b15610f895790604486928360405195869485936334c9bca560e01b8552600485015260248401525af18015610d9857610f67575b50600080516020614d26833981519152600293948483549301549354905490610f4f60405192839263ffffffff60ff89169860081c168460409194939263ffffffff606083019616825260208201520152565b0390a46001600080516020614d468339815191525580f35b600293610f82600080516020614d2683398151915292612f34565b9350610efc565b8580fd5b634e487b7160e01b85526011600452602485fd5b60405162461bcd60e51b815260206004820152601960248201527f6368616c6c656e676520686173206e6f742065787069726564000000000000006044820152606490fd5b50604036600319011261024b576006546040516247a8e360e11b81526001600160a01b0390911690602081600481855afa80156115315783906115d2575b611033915060043511156136dc565b6110406004351515613728565b604051631614b30360e21b808252600480359083015290602081602481865afa908115610d985784916115a0575b5060405190630a2a343960e21b82526004820152604081602481865afa8015610d98576001600160401b03610b55916110b3938791611581575b505116855490613570565b6110c060025434146137f6565b60ff607254161561153c576040519081526004356004820152602081602481855afa9081156115315783916114fb575b5060405163392af9bf60e11b81526004803590820152918383602481845afa928315610d985784936114df575b506004356000198101116114cb57836024916040519283809263392af9bf60e11b82526000196004350160048301525afa908115610d985784916114b1575b50604051602081019083825260243560408201526040815261117d81612ee8565b5190209283855260716020526111a960ff600660408820015460a01c166111a381613184565b1561383b565b6001600160401b036020830151166024351180611498575b1561143a5760016004351480611418575b6113ad57604051916111e383612f19565b8383526024356020840181905260001981011161036f5760405161120681612f19565b848152600019602435016020820152916001600160401b0361122d816020850151166138b3565b166024351461137c575b505061124560015442613570565b6040519160e083018381106001600160401b038211176113685760019594936020989389899460069460405260043584528184019788526040840190815260608401928352816080850198338a52604060a08701998d8b5260c0880199818b5281526071845220955186555180518c870155015160028501555180516003850155015160048301555160058201550192858060a01b0390511683549251916112ec83613184565b6112f583613184565b60ff60a81b9051151560a81b169269ffffffffffffffffffff60b01b16179060ff60a01b9060a01b161717905561132d825442613570565b60405191825284820152827f89389219f04af163105506312f99d6ca034af96d3ee1128efc6a9619ee2aeec2604060243593a4604051908152f35b634e487b7160e01b88526041600452602488fd5b6001600160401b0391925060406020910151920151166040519161139f83612f19565b825260208201523880611237565b60405162461bcd60e51b815260206004820152603860248201527f43616e6e6f74206368616c6c656e676520746865206669727374204c3220686560448201527f6164657220696e207468652066697273742072626c6f636b00000000000000006064820152608490fd5b506001600160401b03611430816020850151166138b3565b16602435146111d2565b60405162461bcd60e51b815260206004820152603060248201527f4c3220686561646572206d7573742062652077697468696e207468652072626c60448201526f6f636b2062756e646c652072616e676560801b6064820152608490fd5b506001600160401b0360208201511660243511156111c1565b6114c591503d8086833e610c778183612f62565b3861115c565b634e487b7160e01b84526011600452602484fd5b6114f49193503d8086833e610c778183612f62565b913861111d565b90506020813d602011611529575b8161151660209383612f62565b810103126115255751386110f0565b8280fd5b3d9150611509565b6040513d85823e3d90fd5b60405162461bcd60e51b815260206004820152601f60248201527f4c3220686561646572206368616c6c656e67652069732064697361626c6564006044820152606490fd5b61159a915060403d604011610d3557610d278183612f62565b386110a8565b90506020813d6020116115ca575b816115bb60209383612f62565b8101031261036b57513861106e565b3d91506115ae565b506020813d6020116115fe575b816115ec60209383612f62565b81010312611525576110339051611024565b3d91506115df565b503461024b578060031936011261024b57604060075481519060ff60f81b8160f81b16825263ffffffff199060181b166020820152f35b503461024b578060031936011261024b577f00000000000000000000000000000000000000000000000000000000000000006001600160a01b031630036116a85760206040517f360894a13ba1a3210667c828492db98dca3e2076cc3735a920a3ca505d382bbc8152f35b60405163703e46dd60e11b8152600490fd5b503461024b57602036600319011261024b576116d4613978565b6004358152606f6020526040812081600482016117318154916116fd60ff8460081c161561357d565b60ff83169061170b82613184565b61010060028314948580156117a5575b6117249061321e565b61ff001916179055613184565b156117765780808061176194600260018060a01b0391015460281c16600254905af161175b6135d4565b50613649565b6001600080516020614d468339815191525580f35b6004546002546117a093508291829182916001600160a01b03165af161179a6135d4565b50613604565b611761565b506117af84613184565b6003841461171b565b50604036600319011261024b576117cd6131a4565b6024356001600160401b038111611525576117ec903690600401612fb5565b6001600160a01b037f00000000000000000000000000000000000000000000000000000000000000008116308114908115611984575b506116a85761182f61393f565b8216916040516352d1902d60e01b8152602081600481875afa859181611950575b5061186e57604051634c9c8ce360e01b815260048101859052602490fd5b9284937f360894a13ba1a3210667c828492db98dca3e2076cc3735a920a3ca505d382bbc908181036119385750823b1561191f5780546001600160a01b0319168217905560405184917fbc7cd75a20ee27fd9adebab32041f755214dbc6bffa90cc0225b39da2e5c2d3b8380a28351156119035750808360206118ff95519101845af46118f96135d4565b91614a07565b5080f35b9250505034611910575080f35b63b398979f60e01b8152600490fd5b604051634c9c8ce360e01b815260048101839052602490fd5b60249060405190632a87526960e21b82526004820152fd5b9091506020813d60201161197c575b8161196c60209383612f62565b81010312610f8957519038611850565b3d915061195f565b9050817f360894a13ba1a3210667c828492db98dca3e2076cc3735a920a3ca505d382bbc5416141538611822565b503461024b578060031936011261024b576020603c54604051908152f35b503461024b57602036600319011261024b576004358015158091036107e3576119f761393f565b60ff80196070541691161760705580f35b503461024b57604036600319011261024b57604051611a2681612f19565b6004356001600160f81b0319811681036115255781526024359063ffffffff19821682036115255760208101918252611a5d61393f565b5160f81c60075491610100600160e81b03905160181c169162ffffff60e81b16171760075580f35b503461024b578060031936011261024b576020600354604051908152f35b503461024b578060031936011261024b57602060ff607254166040519015158152f35b503461024b57602036600319011261024b57600435611ae361393f565b662386f26fc1000081101580611b62575b15611aff5760025580f35b60405162461bcd60e51b815260206004820152603560248201527f6368616c6c656e676520666565206d757374206265206265747765656e20302e60448201527418189032ba3432b91030b7321018981032ba3432b960591b6064820152608490fd5b50678ac7230489e80000811115611af4565b50606036600319011261024b57600435611b8c6131ba565b611b946131ca565b6006546040516247a8e360e11b815260209592916001600160a01b0316908681600481855afa8015610d98578490612047575b611bd491508611156136dc565b611bdf851515613728565b604051631614b30360e21b80825260048201879052936024919088828481875afa918215611fa6578192612018575b5060405191630a2a343960e21b835260048301526040828481875afa918215611fa6578192611ff7575b50611c53610b556001600160401b0380945116835490613570565b611c6060025434146137f6565b60ff6070541615611fb35760405195865287600487015288868481875afa958615611fa6578196611f77575b508281611c9a878a8a613695565b95868252606f8c52611cb960ff6004604085200154166111a381613184565b6040519283809263392af9bf60e11b82528d60048301525afa90811561036057906080918391611f5d575b500160ff815151981697881015611f21578962ffffff8082611d078c8651613538565b51015116928a63ffffffff8a16948510159384611ed1575b5050505015611e7a57611d3460015442613570565b926040519461010086019186831090831117611e68575089946001999897948c94600080516020614d2683398151915298946004946040528a84528684019189835260408501928d8452606086019283526040608087019233845260a08801968752606f60c089019b60018d5260e08a019b838d528352522095518655518e86015564ffffffff0060ff6002870194511684549351926001650100000000009060c81b03905160281b169366ffffffffffffff60c81b16179160081b161717905551600382015501915190611e0882613184565b611e1182613184565b60ff61ff0084549251151560081b1692169061ffff191617179055611e5d611e3a875442613570565b6040519384938460409194939263ffffffff606083019616825260208201520152565b0390a4604051908152f35b634e487b7160e01b8452604160045283fd5b60405162461bcd60e51b8152600481018b9052602a818601527f696e76616c696420736861726520696e6465783a206e6f7420696e20706f696e604482015269746572732072616e676560b01b6064820152608490fd5b839450818394611ef692611eeb60409561ffff9751613538565b510151169451613538565b5101511601818111611f0e5716811038808a8d611d1f565b634e487b7160e01b845260116004528584fd5b60405162461bcd60e51b8152600481018b9052601581860152740d2dcecc2d8d2c840e0ded2dce8cae440d2dcc8caf605b1b6044820152606490fd5b611f7191503d8085833e610c778183612f62565b38611ce4565b9095508881813d8311611f9f575b611f8f8183612f62565b81010312610f8957519438611c8c565b503d611f85565b50604051903d90823e3d90fd5b60405162461bcd60e51b8152600481018a9052601a818501527f4441206368616c6c656e676573206172652064697361626c65640000000000006044820152606490fd5b61201191925060403d604011610d3557610d278183612f62565b9038611c38565b9091508881813d8311612040575b6120308183612f62565b810103126107e357519038611c0e565b503d612026565b508681813d831161206f575b61205d8183612f62565b8101031261036b57611bd49051611bc7565b503d612053565b503461024b578060031936011261024b57602060ff603b54166040519015158152f35b503461024b578060031936011261024b576020600254604051908152f35b503461024b57606036600319011261024b5760206107a36120d66131ba565b6120de6131ca565b90600435613695565b503461024b57602036600319011261024b57612101613978565b600435815260716020526006604082200181600260ff8354612128828260a81c161561357d565b61214b828260a01c1661213a81613184565b84811490811561218c575b5061321e565b60a882901b1916600160a81b1780855560a01c1661216881613184565b03611776578080806117619460018060a01b03905416600254905af161175b6135d4565b6003915061219981613184565b1438612145565b503461024b57602036600319011261024b576121ba6131a4565b6121c261393f565b6001600160a01b031680156121e7576001600160601b0360a01b600454161760045580f35b60405162461bcd60e51b815260206004820152602360248201527f646566656e6465722063616e6e6f7420626520746865207a65726f206164647260448201526265737360e81b6064820152608490fd5b503461024b57602036600319011261024b576040610100916004358152606f6020522060ff81549160018101546002820154916004600382015491015492848416926040519687526020870152848116604087015263ffffffff8160081c16606087015260018060a01b039060281c16608086015260a08501526122bb81613184565b60c084015260081c16151560e0820152f35b503461024b576003196040368201126107e357602435906001600160401b0382116115255760e0818336030112611525576040519160c083018381106001600160401b0382111761293a5760405280600401356001600160401b03811161035c5781013660238201121561035c5760048101359061234a82612f83565b916123586040519384612f62565b80835260051b81016024016020830136821161288d5760248301905b82821061290b5750505050835260248101356001600160401b03811161035c5781013660238201121561035c5760048101356123af81612f83565b916123bd6040519384612f62565b8183526024602084019260051b8201019036821161288d5760248101925b828410612891575050505060208401526123f83660448301612ffc565b604084015260848101356001600160401b03811161035c576124209060043691840101613047565b606084015260a48101356001600160401b03811161035c5781013660238201121561035c5760048101359061245482612f83565b916124626040519384612f62565b80835260051b81016024016020830136821161288d5760248301905b82821061285a5750505050608084015260c4810135906001600160401b03821161035c570160808136039283011261036b5760408051926124be84612ee8565b60048301358452602319011261036b576040516124da81612f19565b602482013581526044820135602082015260208301526064810135906001600160401b03821161035c57600461251392369201016130e8565b604082015260a0820152612525613978565b6004358252606f6020526040822060018060a01b0360065416906024846001830154936040519283809263392af9bf60e11b82528760048301525afa908115610cbf578591612840575b50608060048301549161258a600160ff851661028d81613184565b0151936001600160401b036125a860028501549660ff881690613538565b515116602060a0830151015151036127fb5760408101516126086125fa604051926125d284612f19565b60075460f881901b6001600160f81b031916855260181b63ffffffff19166020850152613fee565b9162ffffff19918291613fee565b169116036127c25760085460a082015160209081015101516126349183906001600160a01b03166139a8565b50156127655761265061264a6080830151613515565b51613d8d565b5090602061266f608061266583850151613515565b5151930151613515565b51015191828102928184041490151715612751579061268d91613570565b9263ffffffff8560081c168094036126ee57600394610f4f60ff9287600080516020614d26833981519152958519161760048701558786549601549060405194859416978460409194939263ffffffff606083019616825260208201520152565b60405162461bcd60e51b815260206004820152603560248201527f70726f6f66206d7573742062652070726f766964656420666f722074686520636044820152740d0c2d8d8cadccecac840e6d0c2e4ca40d2dcc8caf605b1b6064820152608490fd5b634e487b7160e01b87526011600452602487fd5b60405162461bcd60e51b815260206004820152602f60248201527f6661696c656420746f207665726966792073686172657320746f20646174612060448201526e1c9bdbdd081d1d5c1b19481c9bdbdd608a1b6064820152608490fd5b60405162461bcd60e51b8152602060048201526011602482015270696e76616c6964206e616d65737061636560781b6044820152606490fd5b60405162461bcd60e51b815260206004820152601760248201527f696e76616c69642063656c6573746961206865696768740000000000000000006044820152606490fd5b61285491503d8087833e610c778183612f62565b3861256f565b81356001600160401b0381116128895760209161287e8392602436918901016130e8565b81520191019061247e565b8980fd5b8780fd5b83356001600160401b0381116128895782016060602319823603011261288957604051916128be83612ee8565b60248201358352604482013560208401526064820135926001600160401b038411612907576128f7602094936024869536920101613047565b60408201528152019301926123db565b8b80fd5b81356001600160401b0381116128895760209161292f839260243691890101612fb5565b815201910190612374565b634e487b7160e01b85526041600452602485fd5b503461024b57606036600319011261024b57602490604480359060043590843590612977613978565b82855260209060718252604086209060068201908154906129a3600160ff8460a01c1661028d81613184565b60018060a01b0360055416604051968b8789637afdc39160e01b9283825284600483015281865afa988915612d2a578c99612e16575b506001870154809903612dc157604051908152600481018b905287818e81865afa908115612d2a578c91612d94575b50600387015403612d355760405163172c2b0f60e31b8082526004820192909252908b828e81865afa918215612d2a578d8d928d928495612d0e575b506040519586938492835260048301525afa918215612d03578b92612cdf575b50610100998a8201519a6002880154809c03612c9c57830151600488015403612c4b57815103612bf257610160809101908151920191825111612bae5751421115612b61574290511015612b0f575060ff60a01b1916600360a01b17905560050154604080519384529183015260039392917f89389219f04af163105506312f99d6ca034af96d3ee1128efc6a9619ee2aeec29190a46001600080516020614d468339815191525580f35b847f70726576696f7573206865616465722074696d657374616d702069732074686560849260278d6040519462461bcd60e51b86526004860152840152820152662066757475726560c81b6064820152fd5b60405162461bcd60e51b8152600481018790526021818d01527f6865616465722074696d657374616d7020697320696e2074686520667574757281840152606560f81b6064820152608490fd5b5060405162461bcd60e51b815260048101879052601c818d01527f6865616465722074696d657374616d7020697320746f6f206c6174650000000081840152606490fd5b5060405162461bcd60e51b815260048101879052602c818d01527f68656164657220646f6573206e6f7420706f696e7420746f2074686520707265818401526b3b34b7bab9903432b0b232b960a11b6064820152608490fd5b60405162461bcd60e51b8152600481018990526025818f01527f70726576696f757320686561646572206e756d62657220646f6573206e6f742081860152640dac2e8c6d60db1b6064820152608490fd5b6064898f87601c7f686561646572206e756d62657220646f6573206e6f74206d6174636800000000926040519462461bcd60e51b86526004860152840152820152fd5b612cfc9192503d808d833e612cf48183612f62565b8101906132d1565b9038612a64565b6040513d8d823e3d90fd5b612d239195503d8086833e612cf48183612f62565b9338612a44565b6040513d8e823e3d90fd5b5060405162461bcd60e51b8152600481018790526032818d01527f70726576696f7573206c3220686561646572206e6f74206c6f6164656420666f8184015271722074686520676976656e2072626c6f636b60701b6064820152608490fd5b90508781813d8311612dba575b612dab8183612f62565b81010312612907575138612a08565b503d612da1565b60405162461bcd60e51b8152600481018990526029818f01527f6c3220686561646572206e6f74206c6f6164656420666f7220746865206769768186015268656e2072626c6f636b60b81b6064820152608490fd5b9098508781813d8311612e3e575b612e2e8183612f62565b81010312612907575197386129d9565b503d612e24565b503461024b57602036600319011261024b57600435612e6261393f565b61a8c081101580612edb575b15612e7857815580f35b60405162461bcd60e51b815260206004820152603560248201527f6368616c6c656e67652077696e646f77206d757374206265206265747765656e60448201527420313220686f75727320616e642033207765656b7360581b6064820152608490fd5b50621baf80811115612e6e565b606081019081106001600160401b03821117612f0357604052565b634e487b7160e01b600052604160045260246000fd5b604081019081106001600160401b03821117612f0357604052565b6001600160401b038111612f0357604052565b608081019081106001600160401b03821117612f0357604052565b90601f801991011681019081106001600160401b03821117612f0357604052565b6001600160401b038111612f035760051b60200190565b6001600160401b038111612f0357601f01601f191660200190565b81601f8201121561063b57803590612fcc82612f9a565b92612fda6040519485612f62565b8284526020838301011161063b57816000926020809301838601378301015290565b919082604091031261063b5760405161301481612f19565b9182908035906001600160f81b03198216820361063b57908252602001359063ffffffff198216820361063b5760200152565b81601f8201121561063b57803590602061306083612f83565b936040906130716040519687612f62565b8486526020860191602060a08097028601019482861161063b57602001925b8584106130a1575050505050505090565b868484031261063b5784879183516130b881612ee8565b6130c28688612ffc565b81526130d086868901612ffc565b83820152608087013585820152815201930192613090565b91909160608184031261063b576040519061310282612ee8565b819381356001600160401b03811161063b57820181601f8201121561063b57602091813561312f81612f83565b9261313d6040519485612f62565b818452848085019260051b82010192831161063b578401905b8282106131755750505083528082013590830152604090810135910152565b81358152908401908401613156565b6004111561318e57565b634e487b7160e01b600052602160045260246000fd5b600435906001600160a01b038216820361063b57565b6024359060ff8216820361063b57565b6044359063ffffffff8216820361063b57565b906040516131ea81612f19565b602060018294805484520154910152565b60005b83811061320e5750506000910152565b81810151838201526020016131fe565b1561322557565b60405162461bcd60e51b815260206004820152602560248201527f6368616c6c656e6765206973206e6f7420696e2074686520636f727265637420604482015264737461746560d81b6064820152608490fd5b51906001600160a01b038216820361063b57565b81601f8201121561063b5780516132a281612f9a565b926132b06040519485612f62565b8184526020828401011161063b576132ce91602080850191016131fb565b90565b9060208282031261063b5781516001600160401b039283821161063b5701906101e092838383031261063b5760405193840184811082821117612f0357604052825184526020830151602085015261332b60408401613278565b6040850152606083015160608501526080830151608085015260a083015160a085015260c083015181811161063b578261336691850161328c565b60c085015260e083015160e08501526101008084015190850152610120808401519085015261014080840151908501526101608084015190850152610180918284015191821161063b576133bb91840161328c565b908301526101a080820151908301526101c0809101519082015290565b51906001600160401b038216820361063b57565b906020808383031261063b5782516001600160401b039384821161063b57019060a08284031261063b5760409081519460a0860186811082821117612f03578352613436846133d8565b86526134438285016133d8565b82870152828401518387015260609360608101516060880152608081015191821161063b57019184601f8401121561063b5782519061348182612f83565b9561348e82519788612f62565b82875283606081890194028601019481861161063b578401925b8584106134be5750505050505050608082015290565b868483031261063b578251906134d382612ee8565b6134dc856133d8565b82528585015162ffffff8116810361063b5786830152838501519061ffff8216820361063b57828792868b9501528152019301926134a8565b8051156135225760200190565b634e487b7160e01b600052603260045260246000fd5b80518210156135225760209160051b010190565b600101908160011161355a57565b634e487b7160e01b600052601160045260246000fd5b9190820180921161355a57565b1561358457565b60405162461bcd60e51b815260206004820152602260248201527f6368616c6c656e67652068617320616c7265616479206265656e20636c61696d604482015261195960f21b6064820152608490fd5b3d156135ff573d906135e582612f9a565b916135f36040519384612f62565b82523d6000602084013e565b606090565b1561360b57565b60405162461bcd60e51b81526020600482015260166024820152753330b4b632b2103a37903830bc903232b332b73232b960511b6044820152606490fd5b1561365057565b60405162461bcd60e51b815260206004820152601860248201527f6661696c656420746f20706179206368616c6c656e67657200000000000000006044820152606490fd5b604080516020810192835260f89390931b6001600160f81b0319169083015260e09290921b6001600160e01b0319166041820152602581526136d681612ee8565b51902090565b156136e357565b60405162461bcd60e51b815260206004820152601a60248201527f626c6f636b206e6f7420696e2074686520636861696e207965740000000000006044820152606490fd5b1561372f57565b60405162461bcd60e51b815260206004820152601e60248201527f63616e6e6f74206368616c6c656e67652067656e6573697320626c6f636b00006044820152606490fd5b9081604091031261063b576137a260206040519261379184612f19565b61379a816133d8565b845201613278565b602082015290565b156137b157565b60405162461bcd60e51b815260206004820152601d60248201527f626c6f636b20697320746f6f206f6c6420746f206368616c6c656e67650000006044820152606490fd5b156137fd57565b60405162461bcd60e51b815260206004820152601660248201527518da185b1b195b99d948199959481b9bdd081c185a5960521b6044820152606490fd5b1561384257565b60405162461bcd60e51b815260206004820152601860248201527f6368616c6c656e676520616c72656164792065786973747300000000000000006044820152606490fd5b9061010091820391821161355a57565b60001981019190821161355a57565b9190820391821161355a57565b9060016001600160401b038093160191821161355a57565b6001600160a01b0390811690811561392657600080516020614ce683398151915280546001600160a01b031981168417909155167f8be0079c531659141344cd1fd0a4f28419497f9722a3daafe3b4186f6b6457e0600080a3565b604051631e4fbdf760e01b815260006004820152602490fd5b600080516020614ce6833981519152546001600160a01b0316330361396057565b60405163118cdaa760e01b8152336004820152602490fd5b600080516020614d4683398151915260028154146139965760029055565b604051633ee5aeb560e01b8152600490fd5b916139c5919392606085015160808601519060a087015192614057565b9015613d86575060208201515160608301515103613d7d576000805b60208401518051831015613a2b57600191613a1d6020613a0486613a2395613538565b510151613a158660208a0151613538565b5151906138a6565b90613570565b9101906139e1565b50905091909181515103613d7457600090815b60208201518051841015613d68576020613a5b85613a6c93613538565b510151613a15856020860151613538565b93613a83835183613a7d8882613570565b91614223565b600b81949294101561318e5780613d5b5750613aa3856060860151613538565b5190613ab3866020870151613538565b5191604086015197613ac58651614333565b9660005b8751811015613b9e5760206000613b488d613af7613ae7868e613538565b5191613af16142ee565b50613fee565b90613b37604051918683019386855262ffffff1916602184015282603e91613b27815180928b86860191016131fb565b810103601e810184520182612f62565b6040519283928392519283916131fb565b8101039060025afa15613b925760019060005160405190613b6882612ee8565b8d82528d60208301526040820152613b80828c613538565b52613b8b818b613538565b5001613ac9565b6040513d6000823e3d90fd5b5096955092969190939750600094613bba604089015151614333565b95805b89518082141580613d4d575b15613c16578a82613bee856040613be6613c0a96613c10986146e2565b940151613538565b51613bf9868d613538565b52613c04858c613538565b50613570565b9161445e565b90613bbd565b5050509294509290969495613c2e602082015161474b565b60019381851b918083046002149015171561355a5760008083613c61938880969210613d45575b9082869594928861477c565b5050939093925b613d0a575b5050509081613c919251613c82835191613fee565b9062ffffff1980958192613fee565b169116149283613cde575b5082613ccb575b505015613cc15750600191613cb791613570565b9301919092613a3e565b6000955093505050565b6040919250810151910151143880613ca3565b90925060208301519080613cff613cf9602086015194613fee565b93613fee565b169116149138613c9c565b90919260408201518051851015613d3b578391613d2a86613d3193613538565b5190614889565b9301919081613c68565b5092829150613c6d565b859150613c55565b5060408b0151518310613bc9565b9550509250505060009190565b50505050600190600090565b50600090600790565b60009150600590565b6000925090565b6040015160038116613da25760021c90600090565b50600090600890565b80516006546001600160a01b0316939192916001600160401b0391821690600019810190811161355a57604080519663392af9bf60e11b938489528360048a01526000988981602481865afa908115613fe4578a929188918491613fca575b5051161015613fad57506020928388018681511684518781528360048201528b81602481885afa908115613f6857899188918e8092613f92575b50500151161015613f7257888401518451631614b30360e21b815260048101849052908682602481885afa918215613f6857908c949392918592613f32575b5003613f11578760249151169685519485938492835260048301525afa918215613f085750908492918891613eee575b500151169003818111610f8d5781603c54911611613ed45750505050600190565b6003925116600080516020614d068339815191528480a490565b613f0291503d808a833e610c778183612f62565b38613eb3565b513d89823e3d90fd5b505050505050506002925116600080516020614d068339815191528480a490565b888092949596508193503d8311613f61575b613f4e8183612f62565b8101031261290757518b93929138613e83565b503d613f44565b86513d8e823e3d90fd5b5050505050506001925116600080516020614d068339815191528480a490565b613fa692503d8091833e610c778183612f62565b388e613e44565b9693505050505116600080516020614d068339815191528380a490565b613fde91503d8086833e610c778183612f62565b38613e0a565b84513d8c823e3d90fd5b80516020918201516040516001600160f81b031990921692820192835263ffffffff19166021820152601d815261402481612f19565b51905162ffffff19918282169190601d8110614042575b5050905090565b83919250601d0360031b1b161680388061403b565b9192939093805192602080948184015192604080950151838651958694631f3302a960e01b865260048601528051602486015201516044840152608060648401528560e484019180519260606084870152835180915286610104870194019060005b818110614207575050508581015160a4860152015160c48401528290039082906001600160a01b03165afa9081156141fc576000916141c6575b50156141b95783518551036141ac5760005b845181101561419e5761418361412561411e8389613538565b5151613fee565b61413b86614133858b613538565b510151613fee565b9084614147858b613538565b5101519085519262ffffff198092168985015216603d830152605a9081830152815261417281612f47565b61417c8388613538565b5185614383565b1561419057600101614105565b505050505050600090600290565b505050505050600190600090565b5050505050600090600690565b5050505050600090600490565b8481813d83116141f5575b6141db8183612f62565b810103126107e3575190811515820361024b5750386140f3565b503d6141d1565b82513d6000823e3d90fd5b825186528c988a9850958601958b9550909201916001016140b9565b91908181116142e65782518082119081156142dc575b506142d45761424881836138a6565b9261425284612f83565b936142606040519586612f62565b80855261426f601f1991612f83565b0160005b8181106142c3575050815b83811061428f575050505090600090565b806142bc61429f60019385613538565b516142aa86846138a6565b906142b5828a613538565b5287613538565b500161427e565b806060602080938901015201614273565b505090600a90565b9050821138614239565b505090600990565b604051906142fb82612ee8565b6000604083815161430b81612f19565b8381528360208201528152815161432181612f19565b83815283602082015260208201520152565b9061433d82612f83565b61434a6040519182612f62565b828152809261435b601f1991612f83565b019060005b82811061436c57505050565b6020906143776142ee565b82828501015201614360565b604082018051929391926001811161443f5750835151614436575b602084019182518251111561442c5760006143e7602092604051613b37602182878101948786526143d7815180928b86860191016131fb565b8101036001810184520182612f62565b8101039060025afa15613b9257600051935191825115614415579061441193949151905190614557565b1490565b5051600114159050614425571490565b5050600090565b5050505050600090565b50505050600090565b6144508551519160208701516144ae565b1461439e5750505050600090565b600019811461355a5760010190565b60ff7ff0c57e16840df040f15088dc2f81fe391c3923bec73e23a9662efc9c229c6a005460401c161561449c57565b604051631afcd79f60e31b8152600490fd5b909160005b60018481831b10156144df578101809111156144b357634e487b7160e01b600052601160045260246000fd5b509291909261010090810390811161355a576144fa90613887565b91600161450684613897565b1b9161451183613897565b811161451d5750505090565b919250906001830361453157505050600190565b8261454261454e94614548936138a6565b926138a6565b906144ae565b6132ce9061354c565b909182156146815760018314614630578351156145eb576145778361474b565b61458a6145848651613897565b86614a6a565b928181106145c757816145426145aa96936145a4936138a6565b90614557565b6145c1826145bb6132ce9451613897565b90613538565b51614b2e565b6145d19450614557565b906145e46132ce92916145bb8151613897565b5190614b2e565b60405162461bcd60e51b815260206004820181905260248201527f6578706563746564206174206c65617374206f6e6520696e6e657220686173686044820152606490fd5b929150505161463c5790565b60405162461bcd60e51b815260206004820152601760248201527f756e657870656374656420696e6e6572206861736865730000000000000000006044820152606490fd5b60405162461bcd60e51b815260206004820152603360248201527f63616e6e6f742063616c6c20636f6d70757465526f6f744861736820776974686044820152722030206e756d626572206f66206c656176657360681b6064820152608490fd5b90918160005b83151580614740575b15614709576146ff9061445e565b9260011c926146e8565b92506147199061471e92946138a6565b614b70565b60001981019190821161355a5781600192821161473a57501b90565b90501b90565b5083600116156146f1565b6001811061063b5761475c81614b70565b600019810190811161355a576001901b9081146147765790565b60011c90565b93959492909261478a6142ee565b50600161479784846138a6565b146148445784518211801590614836575b61481a576147d5906147c26147bd85856138a6565b61474b565b976147cd8986613570565b85878961477c565b5091976147f096929591946147ea9190613570565b9161477c565b9194909392909115156001146148115761480991614889565b929190600090565b50929190600090565b93604091935061482e959692500151614bb0565b929391929091565b5060208501518310156147a8565b939495918086949294511115908161487b575b5061486a5750604061482e940151614bb0565b805161482e95509193919250614b91565b905060208601511138614857565b906148926142ee565b506148a08251825190614bc6565b916000916040918251936148b385612f19565b8085526020809501526148e181516148d26148cc614c06565b91613fee565b9062ffffff1980938192613fee565b169116146000146149c3576148f4614c06565b925b6149008351613fee565b918561490e88860151613fee565b940151918161491d8251613fee565b8861492a8b850151613fee565b93015194828a5198818d8b0199600160f81b8b521660218b015216603e890152605b88015216607b86015216609884015260b583015260b5825260e082018281106001600160401b03821117612f035785928161499060009482895283519283916131fb565b8101039060025afa156149b857600051928251946149ad86612ee8565b855284015282015290565b50513d6000823e3d90fd5b825181806149db613cf96149d5614c06565b94613fee565b169116146000146149f05784820151926148f6565b614a01858301518685015190614c40565b926148f6565b90614a2e5750805115614a1c57805190602001fd5b604051630a12f52160e11b8152600490fd5b81511580614a61575b614a3f575090565b604051639996b31560e01b81526001600160a01b039091166004820152602490fd5b50803b15614a37565b919082518111614ad157614a7d81612f83565b90614a8b6040519283612f62565b808252601f19614a9a82612f83565b0136602084013760005b818110614ab2575090925050565b80614abf60019287613538565b51614aca8286613538565b5201614aa4565b60405162461bcd60e51b815260206004820152602f60248201527f496e76616c69642072616e67653a205f626567696e206f72205f656e6420617260448201526e65206f7574206f6620626f756e647360881b6064820152608490fd5b614b5d6000916020936040519085820192600160f81b84526021830152604182015260418152613b3781612f47565b8101039060025afa15613b925760005190565b806000915b614b7d575090565b90614b879061445e565b9060011c80614b75565b90614ba89291949394614ba26142ee565b50614c7b565b919392909190565b90614bbe9291614ba26142ee565b919390929190565b9060006020604051614bd781612f19565b8281520152614be582613fee565b62ffffff1980614bf484613fee565b1691161015614c01575090565b905090565b60006020604051614c1681612f19565b8281520152604051614c2781612f19565b6001600160f81b0319815263ffffffff19602082015290565b9060006020604051614c5181612f19565b8281520152614c5f82613fee565b62ffffff1980614c6e84613fee565b1691161115614c01575090565b90809392614c876142ee565b508251908115918215614cda575b508115614ccf575b50614cbe57614cab91613538565b516001830180931161355a579190600090565b5050614cc86142ee565b9190600190565b905081101538614c9d565b831015915038614c9556fe9016d09d72d40fdae2fd8ceac6b6234c7706214fd39c1cd1e609a0528c199300ea46f8ad2711844c28d6aa0fe8ed10b1ac38bdcdc6df7ba3b8f3bfc35232f31b6c1c38434bf7781d35ea9020730ba834cfde2300c18c12141e82e3662d6c45669b779b17422d0df92223018b32b4d1fa46e071723d6817e2486d003becc55f00a164736f6c6343000816000a",
        "linkReferences": {}
    },
    "methodIdentifiers": {
        "UPGRADE_INTERFACE_VERSION()": "ad3cb1cc",
        "chain()": "c763e5a1",
        "chainOracle()": "bfcf4495",
        "challengeDataRootInclusion(uint256,uint8,uint32)": "3323d3e4",
        "challengeFee()": "1bd8f9ca",
        "challengeL2Header(uint256,uint256)": "5ae45d8b",
        "challengePeriod()": "f3f480d9",
        "challengeReward()": "3ea0c15e",
        "challengeWindow()": "861a1412",
        "claimDAChallengeReward(bytes32)": "51ad15cf",
        "claimL2HeaderChallengeReward(bytes32)": "17eef5b1",
        "daChallenges(bytes32)": "113e70fb",
        "daNamespace()": "55c20747",
        "daOracle()": "ee223c02",
        "dataRootInclusionChallengeKey(bytes32,uint8,uint32)": "1b0ec391",
        "defendDataRootInclusion(bytes32,(bytes[],(uint256,uint256,((bytes1,bytes28),(bytes1,bytes28),bytes32)[])[],(bytes1,bytes28),((bytes1,bytes28),(bytes1,bytes28),bytes32)[],(bytes32[],uint256,uint256)[],(uint256,(uint256,bytes32),(bytes32[],uint256,uint256))))": "0eea9bab",
        "defendL2Header(bytes32,bytes32,bytes32)": "0200501d",
        "defender()": "7f4c91c5",
        "finalizationSeconds()": "98e2dffb",
        "initialize(address,address,address)": "c0c53b8b",
        "invalidateHeader(uint256)": "5dade412",
        "isDAChallengeEnabled()": "80a2558a",
        "isHeaderChallengeEnabled()": "325898b1",
        "isL2HeaderChallengeEnabled()": "39e87c22",
        "l2HeaderChallengeHash(bytes32,uint256)": "fa8e8de2",
        "l2HeaderChallenges(bytes32)": "6da802c8",
        "maxBundleSize()": "4c1b6e4b",
        "owner()": "8da5cb5b",
        "proxiableUUID()": "52d1902d",
        "renounceOwnership()": "715018a6",
        "setChallengeFee(uint256)": "35bf82f6",
        "setChallengePeriod(uint256)": "5d475fdd",
        "setChallengeReward(uint256)": "7d3020ad",
        "setChallengeWindow(uint256)": "01c1aa0d",
        "setDANamespace((bytes1,bytes28))": "4329b101",
        "setDAOracle(address)": "a3be6534",
        "setDefender(address)": "163a7177",
        "setMaxBundleSize(uint256)": "bc677451",
        "settleDataRootInclusion(bytes32)": "5bba0ea9",
        "settleL2HeaderChallenge(bytes32)": "f8a22c6c",
        "toggleDAChallenge(bool)": "485bc239",
        "toggleHeaderChallenge(bool)": "988c6671",
        "toggleL2HeaderChallenge(bool)": "95618a28",
        "transferOwnership(address)": "f2fde38b",
        "upgradeToAndCall(address,bytes)": "4f1ef286"
    },
    "id": 7
}